:1000000019C074C027C026C025C024C023C022C088
:1000100021C020C01FC01EC01DC01CC01BC01AC0F4
:1000200019C018C017C016C015C014C013C012C024
:1000300011C010C011241FBECFEFD4E0DEBFCDBF72
:1000400011E0A0E0B1E001C01D92AF30B107E1F7CF
:1000500085D0A8C0D5CF8091000190910101892B56
:10006000D1F48FEF8093030184E08093040180E357
:100070008093050180910C01809306011092070185
:1000800085E080930E011092020181E090E0909350
:100090000101809300010895809100019091010178
:1000A000892B19F18091C00085FF1FC0909102013A
:1000B000992321F48091C100816003C08091C10027
:1000C0008E7F8093C100E92FF0E0ED5FFE4F8081CD
:1000D0008093C6009F5F9093020180910E01891763
:1000E00020F4109201011092000108951F920F92C6
:1000F0000FB60F9211242F933F934F935F936F93FB
:100100007F938F939F93AF93BF93EF93FF9326B10A
:100110002F7080910D01281781F080910D0180953D
:100120008223982F9295907F9BB980930C018091A8
:100130000C0185B920930D018EDFFF91EF91BF91E6
:10014000AF919F918F917F916F915F914F913F916F
:100150002F910F900FBE0F901F9018958FE084B9CC
:1001600015B817B888B982EF8AB984E08093C100C6
:1001700086E08093C2001092C5008BE08093C4009B
:1001800083E08093690081E08DBB78941092010137
:10019000109200018091C10088608093C100A895F1
:0801A0007BDFFDCFF894FFCFD7
:00000001FF
