:1000000019C028C027C026C0B1C024C023C022C048
:1000100021C020C01FC01EC01DC01CC01BC01AC0F4
:1000200019C018C017C016C015C014C013C012C024
:1000300011C010C011241FBECFEFD4E0DEBFCDBF72
:1000400011E0A0E0B1E001C01D92AF30B107E1F7CF
:10005000B0D0D6C0D5CF8091000190910101892BFD
:10006000D1F48FEF8093030184E08093040180E357
:100070008093050180910C01809306011092070185
:1000800085E080930E011092020181E090E0909350
:100090000101809300010895809100019091010178
:1000A000892B19F18091C00085FF1FC0909102013A
:1000B000992321F48091C100816003C08091C10027
:1000C0008E7F8093C100E92FF0E0ED5FFE4F8081CD
:1000D0008093C6009F5F9093020180910E01891763
:1000E00020F410920101109200010895282F84300D
:1000F00068F4813029F0813028F0823041F404C066
:1001000090E106C090E504C090E202C023E090E0D8
:100110008BB18F78982B9BB981E090E002C0880F5B
:10012000991F2A95E2F780930C0185B994DF089511
:1001300096B19F7080910D019817B9F090930D01C1
:10014000892F80958F7089F080FF02C080E007C002
:1001500081FF02C081E003C082FF03C082E0C6DFEE
:10016000089583FF02C083E0C1DF08951F920F92BC
:100170000FB60F9211242F933F934F935F936F937A
:100180007F938F939F93AF93BF93EF93FF93D0DFB2
:10019000FF91EF91BF91AF919F918F917F916F915F
:1001A0005F914F913F912F910F900FBE0F901F9035
:1001B00018958FE084B915B817B888B982EF8AB955
:1001C00084E08093C10086E08093C2001092C50055
:1001D00089EF8093C40082E08093680080E280937E
:1001E0006C00789410920101109200018091C1007E
:1001F00088608093C10080E079DFA8954DDFFDCF56
:04020000F894FFCFA0
:00000001FF
