:100000000C9455000C9462010C94DF020C94720065
:100010000C9472000C9472000C9472000C94720098
:100020000C9472000C9472000C9472000C94720088
:100030000C9472000C9472000C9472000C94720078
:100040000C9472000C9472000C9472000C94720068
:100050000C9472000902120001010080960904004C
:1000600000000000000012011001FF000008C0168F
:10007000DC05000101020001140367006E00750039
:100080007300770069007400630068001A0377004A
:10009000770077002E0061006E0079006D0061002E
:1000A0002E00630068000403090411241FBECFE57D
:1000B000D4E0DEBFCDBF10E0A0E6B0E0EEECFBE0A8
:1000C00002C005900D92A436B107D9F710E0A4E65E
:1000D000B0E001C01D92AB3BB107E1F70E944205C1
:1000E0000C94E5050C940000CF93DF93909194005D
:1000F000935097FD77C080919100C4EAD0E0C81B6F
:10010000D109809190008D3209F06AC0983009F0D1
:1001100067C083EC809384008AE58093600010922E
:1001200064008881807621F0CE010E9499054EC03E
:100130004DE850E02A8180938D009981992321F424
:1001400080938E0082E03EC0953019F42093950094
:1001500039C0963051F5382F8B81813021F432E14E
:1001600086E690E019C0823021F432E184E590E027
:1001700013C08330A9F4222321F434E086EA90E00E
:100180000BC0213021F43AE18CE890E005C0223028
:1001900039F434E188E790E09093930080939200E3
:1001A00080E480936400832F11C0983019F447E9EC
:1001B00050E007C0993019F42093970003C09A309B
:1001C00009F481E05093930040939200282F8F818F
:1001D000882321F48E81821708F4282F2093610050
:1001E000109294008091600084FF3FC08091610074
:1001F0008F3F09F43AC0682F893008F068E0861B09
:10020000809361008091840098E88927809384001E
:10021000A5E8B0E06623B9F0962FE0919200F09146
:1002200093008091640086FF06C084918D9331967F
:100230009150D9F704C081918D939150E1F7F093DB
:100240009300E09392007727C62F693040F485E849
:1002500090E00E945E01CC5FCC3028F401C0CEE17A
:100260008FEF80936100C093600094E186B3837048
:1002700031F49150D9F79093950090938F00DF91CE
:10028000CF91089585B7836085BF8BB780648BBF9E
:100290000895A82FB92F80E090E041E050EA6095E2
:1002A0006F5F58F42D9138EF82279795879510F05E
:1002B000842795273F5FC8F3F3CF0895EADF8D9336
:1002C0009D930895CF93CFB7CF93C395B09BE9F794
:1002D000B09B09C0B09B07C0B09B05C0B09B03C0DA
:1002E000B09B01C0A1C0DF93C0919100DD27C8562B
:1002F000DF4FB09B02C0DF91EBCF2F930F931F9383
:1003000006B32FEF00FB20F94F933F9316B34FEF47
:10031000012700FB21F93BE031C04E7F012F16B3CE
:10032000216028C0102F4D7F2260000006B329C035
:100330004B7F2460012F000016B32BC016B3477FFC
:1003400028602AC04F7E06B320612CC04F7D16B3B3
:1003500020622FC04F7B06B3206432C0422706B311
:1003600049934FEF0000102710FB20F916B31370CC
:10037000C9F1297F91F2012700FB21F906B3237F00
:1003800089F2315058F1102710FB22F916B3277E5D
:1003900079F2012700FB23F92F7C81F206B31027A5
:1003A00010FB24F92F7971F200C016B3012700FB6E
:1003B00025F92F7359F200C006B3102710FB26F958
:1003C000223040F200C016B3012700FB27F9243089
:1003D00028F64F77206816B30000F9CF10E41ABF53
:1003E000002717C03B503195C31BD04010E41ABF03
:1003F0000881033CE9F00B34D9F020918F0019817A
:10040000110F1213EDCF093641F10D3211F0013EFB
:1004100039F7009396003F914F911F910F912F91C3
:10042000DF91CAB7C6FD51CFCF91CFBFCF911895FD
:1004300020919600222379F310919400112311F555
:10044000343012F130939400209390001091910079
:100450003BE0311B3093910017C0009194000130B4
:100460008CF40AE53091600034FD10C00093600008
:10047000C4E8D0E00FC02795A8F45150A9F4220F8A
:100480000000F9CF4AE503C042ED01C0432FC4E1AB
:10049000D0E032E017B31360C09A17BB08B320E472
:1004A00013E05F93012756E008BB279520F45150D5
:1004B00021F4220FF9CF012756E000003B5A08BB78
:1004C000D0F2279528F4515029F4220F0000F9CFDB
:1004D000012756E0279508BB20F4515021F4220F44
:1004E000F9CF012756E02991332308BB21F60C7F71
:1004F00010919500110FC651D04008BB11F0109318
:100500008F0010E41ABF016017B31C7F402F4C7F8F
:100510005F9100C000C008BB17BB48BB7CCF21E087
:1005200030E002C0220F331F8A95E2F7922F909598
:1005300082B3892382BB089508B602FE3FC0F894B7
:100540000AB607FC2EC085B78B7F85BF8BB7806846
:100550008BBF1BBA18BA15BA80E682BB88E10FB60A
:10056000F89481BD11BC0FBE85B7806485BF7894B7
:10057000889585B78F7B85BF8BB78F778BBF85B706
:10058000846085BFA89588E190E02EE00FB6F894CE
:10059000A89581BD0FBE21BD80E782BB86E00E9489
:1005A0008F0278948AB780688ABF81E08EBD88EA1E
:1005B00091E69DBD8CBD88B7846088BF08951F9269
:1005C0000F920FB60F9211240F900FBE0F901F9035
:1005D0001895E199FECF8EBB6DBBF894E29AE19A33
:1005E00078940895E199FECF8EBBE09A8DB3992758
:1005F000089521E030E002C0220F331F8A95E2F710
:1006000082B3822B82BB089521E030E002C0220F2A
:10061000331F8A95E2F782B3822782BB089586B1A1
:10062000992726E0969587952A95E1F780959095EC
:1006300081709070089584B1282F332785B1992750
:10064000982F8827822B932B08950E941B03959542
:10065000879595958795089597B1907E8F71982B82
:1006600097B90895349A369A089588B38C7F88BBD9
:1006700087B3836087BB9FEF80E08150F1F7915093
:10068000D9F787B38C7F87BB0895379A359886B1A1
:10069000887F866086B93E9A3F983598339880EE79
:1006A00081BB80E782BB8F9A979A88E190E02EE029
:1006B0000FB6F894A89581BD0FBE21BD0E943503E9
:1006C0000E94420185B7877F85BF85B7846085BF5B
:1006D00085B78F74806285BF83E08EBD1DBC1CBC56
:1006E00088B7846088BF7894089584B78E7F84BF6C
:1006F000F89488E10FB6F89481BD11BC0FBE9FE756
:1007000081B3892381BB82B3892382BB339886B1AD
:10071000892386B91BBA18BA15BA86E00E94F90275
:1007200085E00E94F902E0916200F0916300099572
:10073000089536990FC084B145B1342F20E090E080
:10074000282B392B359527953595279520936E00C5
:10075000349A369A08958091AE009091AF00892B1B
:10076000E1F48FEF8093B10084E08093B20080E3E6
:100770008093B30080917C008093B40080917D00D1
:100780008093B50085E08093BA001092B00081E0BC
:1007900090E09093AF008093AE0008958FB9779B5F
:1007A000FECF0895C498C49A0895E5E6F0E08081EC
:1007B0008295807F9181892B8FB9779BFECF32966E
:1007C00080E0ED36F80799F70E94D203089520E003
:1007D00030E063E070E0CB01022E02C09595879572
:1007E0000A94E2F780FF02C040E901C040E02F5FB9
:1007F0003F4FCB01022E02C0959587950A94E2F7F0
:100800002150304080FD49604FB9779BFECF2E5F6D
:100810003F4F28303105F9F60E94D203089520E0B9
:1008200030E0682F70E0422FCB01022E02C0959578
:1008300087950A94E2F780FD06C02F5F3F4F253071
:10084000310589F74FEF842F08950F931F9300917F
:100850007E00002311F000937D0010917D00812F18
:100860000E940F04982F80916D00843120F5109222
:100870007E00112359F09F3FA1F0809166008917F7
:1008800081F0909366000E94D5030BC081E090E058
:100890000090660002C0880F991F0A94E2F78093C7
:1008A0007D0081E090E00090650002C0880F991FF4
:1008B0000A94E2F725C08C3E30F110927E0011239D
:1008C00059F09F3FA1F080916500891781F09093C6
:1008D00065000E94D5030BC081E090E000906500A8
:1008E00002C0880F991F0A94E2F780937D0081E08F
:1008F00090E00090660002C0880F991F0A94E2F70A
:1009000080937C0016C081E090E09C01009065001F
:1009100002C0220F331F0A94E2F70090660002C063
:10092000880F991F0A94E2F7282B20937C000093EC
:100930007D0020917D0090917C0080918200821743
:1009400021F480918100891731F0909381002093E8
:1009500082000E94AB031F910F9108958091770050
:1009600090917800009731F00197909378008093F0
:100970007700089589B39091800089238095209114
:1009800079002095282380937900222389F082E33F
:1009900090E0909378008093770025FF07C08091C6
:1009A0007B0090EC892780937B00089520937E0044
:1009B0000895CF93DF9380917F00882311F08150B9
:1009C00036C050917A0080EC582750937A00503806
:1009D00019F480917C0002C080917D0040E020E00D
:1009E00030E0682F70E0A5E0B0E0E1E0F0E0CB019E
:1009F000022E02C0959587950A94E2F780FF0AC0FF
:100A0000CD01821B930BEF0102C0CC0FDD1F8A9535
:100A1000E2F74C2B2F5F3F4F2530310541F7809196
:100A20007B00852309F04160452B45BB88EC809312
:100A30007F00DF91CF91089580936D00089580E04D
:100A400008958091AE009091AF00892BD1F05D9B0D
:100A500018C09091B000992311F4509A01C0509899
:100A6000E92FF0E0EF54FF4F80818CB99F5F9093A6
:100A7000B0008091BA00891720F41092AF00109254
:100A8000AE0008951F931ABA8FE78BBB8FEB87BB1D
:100A900083E58DB9709A88B388BB8FEF84BB85BB23
:100AA00014E01AB986E080BD10BC85E989B90E94BE
:100AB000450386E00E948F02899A889882B38C7FD2
:100AC00082BB1092AF001092AE000E94E70380E458
:100AD00080937B0080937A008FE38093800087B1BE
:100AE000807E876087B9349A369A10928100539A33
:100AF00013BF11E0A8950E9474000E949903809191
:100B00006E0080936D000E94AE040E9425040E9436
:100B1000D9040E94210508B600FEECCF18BF8091D1
:100B200083008F5F80938300882321F70E94AB03AB
:100B3000E1CFFC0181818630B1F480916D0080931A
:100B40006F00809165008F5F8093700080916600D8
:100B50008F5F809371008FE690E090939300809375
:100B6000920083E008958A3071F18C3031F48281F3
:100B7000809380000E94E70324C08B3021F485E03D
:100B80000E9404031EC08130C1F482818093B100B1
:100B900083E08093B20080E18093B30084818093EE
:100BA000B40084E08093BA001092B00081E090E03D
:100BB0009093AF008093AE0004C0883F21F40E9460
:0E0BC000750380E0089580E00895F894FFCF5B
:040BCE005AFF001CAE
:00000001FF
