:1000000017C024C023C022C021C020C01FC08FC081
:100010001DC01CC01BC01AC019C018C017C016C014
:1000200015C014C013C081E74943271311C701034A
:1000300011241FBECFEDCDBF10E0A0E6B0E001C09F
:100040001D92A937B107E1F795D1BFC1D9CF88B3C8
:100050008E6F88BB089598B39E6F98BB98B3982312
:1000600098BB0895E6E2F0E0E80FF11DE4918E2FD1
:10007000089508B607FE5AC080E888BFE091710075
:10008000EE2311F180917000882319F48AE08093A7
:10009000700089E180937200F0E0EA5DFF4FE49127
:1000A000E0937300809170008150809370008130E4
:1000B00069F58FE7809372008FEF80937300109241
:1000C00071001092700022C0E0917700EE2339F0A9
:1000D000F0E0EA5DFF4FE491E093720015C02091DB
:1000E0006400222399F0822F6AE04DD1E82FF0E0DE
:1000F000EA5DFF4FE491E0937200822F44D1E92F33
:10010000F0E0EA5DFF4FE491E0937300E09161005D
:10011000EF5FE170E093610088B38E6F88BB98B3A6
:10012000F0E0EE58FF4F8081982398BB08951F920E
:100130000F920FB60F9211242F938F939F93EF93EB
:10014000FF938BB18C7191F05C9B03C084E0809332
:1001500071005B9B03C085E0809371005A9B03C0D4
:1001600086E0809371008BB1837E8BB99AB12CB1FC
:1001700080917100882309F048C091FF22C02F3F71
:1001800011F42091640080916400281709F03DC0AB
:10019000109260008091620090916300813091051F
:1001A00019F41092710005C0029719F481E0809350
:1001B000710081E090E09093630080936200589812
:1001C00024C08091620090916300019719F083E050
:1001D0008093710090916000992319F42093780026
:1001E00005C0E92FF0E0EA59FF4F20839F5F90930D
:1001F000600080917800891740F482E090E090934D
:1002000063008093620081E08BB9FF91EF919F9131
:100210008F912F910F900FBE0F901F901895809186
:10022000650090916600009731F00196909366000A
:1002300080936500089584990DC0809177008B5F4D
:1002400066E0A1D09093770081E090E09093660003
:100250008093650085990DC0809177008F5F66E07F
:1002600092D09093770081E090E090936600809325
:1002700065008091650090916600019729F482E005
:1002800090E06091770093D0089580916200909102
:100290006300029709F03FC080916700803119F038
:1002A000803391F510C080916400893080F5809191
:1002B0006800893010F48093770082E090E06091CC
:1002C000770075D024C09698C098809177008823D5
:1002D000F1F0282F30E0215030408091680090E00C
:1002E000022E02C0959587950A94E2F780FD969AB2
:1002F0008091690090E002C0959587952A95E2F774
:1003000080FF05C0C09A03C087E0809371001092FF
:10031000630010926200089588E08093640082E098
:1003200090E03DD080937700893010F010927700F4
:100330009FEF97BB8EEF88BB8FE7809372009093FF
:10034000730080937400909375009093760082E41C
:1003500081BB12BA82B3806382BB83E08EBD81E031
:100360008BB984E98AB986E083B912B885E989B97D
:1003700078940895D1DF109263001092620085DFB7
:100380004EDF77DEFCCF991B79E004C0991F9617EA
:1003900008F0961B881F7A95C9F780950895E19912
:1003A000FECF1FBA8EBBE09A99278DB30895262FF2
:1003B000E199FECF1CBA1FBA8EBB2DBB0FB6F894C5
:0E03C000E29AE19A0FBE01960895F894FFCFDD
:00000001FF
